{
  "contractName": "CrmContract",
  "abi": [
    {
      "constant": true,
      "inputs": [
        {
          "name": "",
          "type": "uint256"
        }
      ],
      "name": "clienteCpfs",
      "outputs": [
        {
          "name": "",
          "type": "string"
        }
      ],
      "payable": false,
      "stateMutability": "view",
      "type": "function"
    },
    {
      "constant": true,
      "inputs": [
        {
          "name": "",
          "type": "uint256"
        }
      ],
      "name": "contaNumeros",
      "outputs": [
        {
          "name": "",
          "type": "uint256"
        }
      ],
      "payable": false,
      "stateMutability": "view",
      "type": "function"
    },
    {
      "anonymous": false,
      "inputs": [
        {
          "indexed": false,
          "name": "_cpfCliente",
          "type": "string"
        },
        {
          "indexed": false,
          "name": "_msg",
          "type": "string"
        }
      ],
      "name": "clienteAtualizado",
      "type": "event"
    },
    {
      "constant": false,
      "inputs": [
        {
          "name": "cpf",
          "type": "string"
        },
        {
          "name": "rg",
          "type": "string"
        },
        {
          "name": "nome",
          "type": "string"
        },
        {
          "name": "telefone",
          "type": "string"
        },
        {
          "name": "idade",
          "type": "uint256"
        },
        {
          "name": "endereco",
          "type": "string"
        },
        {
          "name": "renda",
          "type": "uint32"
        },
        {
          "name": "escolaridade",
          "type": "string"
        }
      ],
      "name": "adicionarCliente",
      "outputs": [],
      "payable": false,
      "stateMutability": "nonpayable",
      "type": "function"
    },
    {
      "constant": false,
      "inputs": [
        {
          "name": "agencia",
          "type": "string"
        },
        {
          "name": "cpfTitular",
          "type": "string"
        },
        {
          "name": "bloqueio",
          "type": "bool"
        },
        {
          "name": "saldo",
          "type": "int32"
        }
      ],
      "name": "adicionarConta",
      "outputs": [],
      "payable": false,
      "stateMutability": "nonpayable",
      "type": "function"
    },
    {
      "constant": true,
      "inputs": [],
      "name": "listarClientes",
      "outputs": [
        {
          "name": "",
          "type": "string[]"
        },
        {
          "name": "",
          "type": "string[]"
        },
        {
          "name": "",
          "type": "string[]"
        },
        {
          "name": "",
          "type": "string[]"
        },
        {
          "name": "",
          "type": "uint256[]"
        },
        {
          "name": "",
          "type": "string[]"
        },
        {
          "name": "",
          "type": "uint32[]"
        },
        {
          "name": "",
          "type": "string[]"
        }
      ],
      "payable": false,
      "stateMutability": "view",
      "type": "function"
    },
    {
      "constant": true,
      "inputs": [
        {
          "name": "_cpf",
          "type": "string"
        }
      ],
      "name": "informacoesCliente",
      "outputs": [
        {
          "name": "",
          "type": "string"
        },
        {
          "name": "",
          "type": "string"
        },
        {
          "name": "",
          "type": "string"
        },
        {
          "name": "",
          "type": "uint256"
        },
        {
          "name": "",
          "type": "string"
        },
        {
          "name": "",
          "type": "uint32"
        },
        {
          "name": "",
          "type": "string"
        }
      ],
      "payable": false,
      "stateMutability": "view",
      "type": "function"
    },
    {
      "constant": false,
      "inputs": [
        {
          "name": "_cpfCliente",
          "type": "string"
        },
        {
          "name": "_newRg",
          "type": "string"
        },
        {
          "name": "_newNome",
          "type": "string"
        },
        {
          "name": "_newTelefone",
          "type": "string"
        },
        {
          "name": "_newIdade",
          "type": "uint256"
        },
        {
          "name": "_newEndereco",
          "type": "string"
        },
        {
          "name": "_newRenda",
          "type": "uint32"
        },
        {
          "name": "_newEscolaridade",
          "type": "string"
        }
      ],
      "name": "atualizarDadosCliente",
      "outputs": [],
      "payable": false,
      "stateMutability": "nonpayable",
      "type": "function"
    }
  ],
  "bytecode": "0x608060405234801561001057600080fd5b506120f3806100206000396000f3fe608060405260043610610083576000357c0100000000000000000000000000000000000000000000000000000000900463ffffffff1680631636a5be146100885780631cbc7577146100b15780636bbfa7ad146100ee5780638a03bfa214610117578063ad17db9f14610140578063c0fb95961461017d578063cb2e7aa9146101c0575b600080fd5b34801561009457600080fd5b506100af60048036036100aa91908101906116b0565b6101f2565b005b3480156100bd57600080fd5b506100d860048036036100d391908101906117f2565b6104e9565b6040516100e59190611d17565b60405180910390f35b3480156100fa57600080fd5b506101156004803603610110919081019061161d565b6105a4565b005b34801561012357600080fd5b5061013e600480360361013991908101906116b0565b610794565b005b34801561014c57600080fd5b50610167600480360361016291908101906117f2565b610994565b6040516101749190611f20565b60405180910390f35b34801561018957600080fd5b506101a4600480360361019f91908101906115dc565b6109b7565b6040516101b79796959493929190611d39565b60405180910390f35b3480156101cc57600080fd5b506101d5610ed9565b6040516101e9989796959493929190611c61565b60405180910390f35b6001885110151515610239576040517f08c379a000000000000000000000000000000000000000000000000000000000815260040161023090611e20565b60405180910390fd5b6001875110151515610280576040517f08c379a000000000000000000000000000000000000000000000000000000000815260040161027790611ec0565b60405180910390fd5b60018651101515156102c7576040517f08c379a00000000000000000000000000000000000000000000000000000000081526004016102be90611f00565b60405180910390fd5b6102d088611298565b151515610312576040517f08c379a000000000000000000000000000000000000000000000000000000000815260040161030990611e80565b60405180910390fd5b610100604051908101604052808981526020018881526020018781526020018681526020018581526020018481526020018363ffffffff168152602001828152506000896040518082805190602001908083835b60208310151561038b5780518252602082019150602081019050602083039250610366565b6001836020036101000a038019825116818451168082178552505050505050905001915050908152602001604051809103902060008201518160000190805190602001906103da9291906113c5565b5060208201518160010190805190602001906103f79291906113c5565b5060408201518160020190805190602001906104149291906113c5565b5060608201518160030190805190602001906104319291906113c5565b506080820151816004015560a08201518160050190805190602001906104589291906113c5565b5060c08201518160060160006101000a81548163ffffffff021916908363ffffffff16021790555060e082015181600701908051906020019061049c9291906113c5565b5090505060018890806001815401808255809150509060018203906000526020600020016000909192909190915090805190602001906104dd929190611445565b50505050505050505050565b6001818154811015156104f857fe5b906000526020600020016000915090508054600181600116156101000203166002900480601f01602080910402602001604051908101604052809291908181526020018280546001816001161561010002031660029004801561059c5780601f106105715761010080835404028352916020019161059c565b820191906000526020600020905b81548152906001019060200180831161057f57829003601f168201915b505050505081565b60018351101515156105eb576040517f08c379a00000000000000000000000000000000000000000000000000000000081526004016105e290611e20565b60405180910390fd5b6001845110151515610632576040517f08c379a000000000000000000000000000000000000000000000000000000000815260040161062990611ee0565b60405180910390fd5b6000151561063f84611298565b1515141515610683576040517f08c379a000000000000000000000000000000000000000000000000000000000815260040161067a90611e00565b60405180910390fd5b6000600160038054905001905060a06040519081016040528082815260200186815260200185815260200184151581526020018360030b815250600260008381526020019081526020016000206000820151816000015560208201518160010190805190602001906106f69291906113c5565b5060408201518160020190805190602001906107139291906113c5565b5060608201518160030160006101000a81548160ff02191690831515021790555060808201518160030160016101000a81548163ffffffff021916908360030b63ffffffff16021790555090505060038190806001815401808255809150509060018203906000526020600020016000909192909190915055505050505050565b60018751101515156107db576040517f08c379a00000000000000000000000000000000000000000000000000000000081526004016107d290611e40565b60405180910390fd5b6001865110151515610822576040517f08c379a000000000000000000000000000000000000000000000000000000000815260040161081990611e60565b60405180910390fd5b600080896040518082805190602001908083835b60208310151561085b5780518252602082019150602081019050602083039250610836565b6001836020036101000a03801982511681845116808217855250505050505090500191505090815260200160405180910390209050888160000190805190602001906108a8929190611445565b50878160010190805190602001906108c1929190611445565b50868160020190805190602001906108da929190611445565b50858160030190805190602001906108f3929190611445565b5084816004018190555083816005019080519060200190610915929190611445565b50828160060160006101000a81548163ffffffff021916908363ffffffff16021790555081816007019080519060200190610951929190611445565b507fd6ca7272c1a59963109baed6fbbace3835a01f2e54ef870753bca41b4a149f6d896040516109819190611dcb565b60405180910390a1505050505050505050565b6003818154811015156109a357fe5b906000526020600020016000915090505481565b606080606060006060600060606109cc6114c5565b6000896040518082805190602001908083835b602083101515610a0457805182526020820191506020810190506020830392506109df565b6001836020036101000a03801982511681845116808217855250505050505090500191505090815260200160405180910390206101006040519081016040529081600082018054600181600116156101000203166002900480601f016020809104026020016040519081016040528092919081815260200182805460018160011615610100020316600290048015610add5780601f10610ab257610100808354040283529160200191610add565b820191906000526020600020905b815481529060010190602001808311610ac057829003601f168201915b50505050508152602001600182018054600181600116156101000203166002900480601f016020809104026020016040519081016040528092919081815260200182805460018160011615610100020316600290048015610b7f5780601f10610b5457610100808354040283529160200191610b7f565b820191906000526020600020905b815481529060010190602001808311610b6257829003601f168201915b50505050508152602001600282018054600181600116156101000203166002900480601f016020809104026020016040519081016040528092919081815260200182805460018160011615610100020316600290048015610c215780601f10610bf657610100808354040283529160200191610c21565b820191906000526020600020905b815481529060010190602001808311610c0457829003601f168201915b50505050508152602001600382018054600181600116156101000203166002900480601f016020809104026020016040519081016040528092919081815260200182805460018160011615610100020316600290048015610cc35780601f10610c9857610100808354040283529160200191610cc3565b820191906000526020600020905b815481529060010190602001808311610ca657829003601f168201915b5050505050815260200160048201548152602001600582018054600181600116156101000203166002900480601f016020809104026020016040519081016040528092919081815260200182805460018160011615610100020316600290048015610d6f5780601f10610d4457610100808354040283529160200191610d6f565b820191906000526020600020905b815481529060010190602001808311610d5257829003601f168201915b505050505081526020016006820160009054906101000a900463ffffffff1663ffffffff1663ffffffff168152602001600782018054600181600116156101000203166002900480601f016020809104026020016040519081016040528092919081815260200182805460018160011615610100020316600290048015610e375780601f10610e0c57610100808354040283529160200191610e37565b820191906000526020600020905b815481529060010190602001808311610e1a57829003601f168201915b5050505050815250509050600181600001515110151515610e8d576040517f08c379a0000000000000000000000000000000000000000000000000000000008152600401610e8490611ea0565b60405180910390fd5b80602001518160400151826060015183608001518460a001518560c001518660e00151869650859550849450829250809050975097509750975097509750975050919395979092949650565b60608060608060608060608060606001805480602002602001604051908101604052809291908181526020016000905b82821015610fc5578382906000526020600020018054600181600116156101000203166002900480601f016020809104026020016040519081016040528092919081815260200182805460018160011615610100020316600290048015610fb15780601f10610f8657610100808354040283529160200191610fb1565b820191906000526020600020905b815481529060010190602001808311610f9457829003601f168201915b505050505081526020019060010190610f09565b5050505090506060815160405190808252806020026020018201604052801561100257816020015b6060815260200190600190039081610fed5790505b5090506060825160405190808252806020026020018201604052801561103c57816020015b60608152602001906001900390816110275790505b5090506060835160405190808252806020026020018201604052801561107657816020015b60608152602001906001900390816110615790505b509050606084516040519080825280602002602001820160405280156110ab5781602001602082028038833980820191505090505b509050606085516040519080825280602002602001820160405280156110e557816020015b60608152602001906001900390816110d05790505b5090506060865160405190808252806020026020018201604052801561111a5781602001602082028038833980820191505090505b5090506060875160405190808252806020026020018201604052801561115457816020015b606081526020019060019003908161113f5790505b50905060008090505b885181101561126d57611186898281518110151561117757fe5b906020019060200201516109b7565b8696508595508494508292508090508e888151811015156111a357fe5b9060200190602002018e898151811015156111ba57fe5b9060200190602002018e8a8151811015156111d157fe5b9060200190602002018e8b8151811015156111e857fe5b9060200190602002018e8c8151811015156111ff57fe5b9060200190602002018e8d81518110151561121657fe5b9060200190602002018e8e81518110151561122d57fe5b9060200190602002018790528763ffffffff1663ffffffff168152508790528781525087905287905287905250505050505050808060010191505061115d565b5087878787878787879f509f509f509f509f509f509f509f5050505050505050509091929394959697565b600060606000836040518082805190602001908083835b6020831015156112d457805182526020820191506020810190506020830392506112af565b6001836020036101000a03801982511681845116808217855250505050505090500191505090815260200160405180910390206000018054600181600116156101000203166002900480601f01602080910402602001604051908101604052809291908181526020018280546001816001161561010002031660029004801561139e5780601f106113735761010080835404028352916020019161139e565b820191906000526020600020905b81548152906001019060200180831161138157829003601f168201915b50505050509050600181511015156113ba5760019150506113c0565b60009150505b919050565b828054600181600116156101000203166002900490600052602060002090601f016020900481019282601f1061140657805160ff1916838001178555611434565b82800160010185558215611434579182015b82811115611433578251825591602001919060010190611418565b5b5090506114419190611511565b5090565b828054600181600116156101000203166002900490600052602060002090601f016020900481019282601f1061148657805160ff19168380011785556114b4565b828001600101855582156114b4579182015b828111156114b3578251825591602001919060010190611498565b5b5090506114c19190611511565b5090565b61010060405190810160405280606081526020016060815260200160608152602001606081526020016000815260200160608152602001600063ffffffff168152602001606081525090565b61153391905b8082111561152f576000816000905550600101611517565b5090565b90565b60006115428235612033565b905092915050565b6000611556823561203f565b905092915050565b600082601f830112151561157157600080fd5b813561158461157f82611f68565b611f3b565b915080825260208301602083018583830111156115a057600080fd5b6115ab838284612066565b50505092915050565b60006115c0823561204c565b905092915050565b60006115d48235612056565b905092915050565b6000602082840312156115ee57600080fd5b600082013567ffffffffffffffff81111561160857600080fd5b6116148482850161155e565b91505092915050565b6000806000806080858703121561163357600080fd5b600085013567ffffffffffffffff81111561164d57600080fd5b6116598782880161155e565b945050602085013567ffffffffffffffff81111561167657600080fd5b6116828782880161155e565b935050604061169387828801611536565b92505060606116a48782880161154a565b91505092959194509250565b600080600080600080600080610100898b0312156116cd57600080fd5b600089013567ffffffffffffffff8111156116e757600080fd5b6116f38b828c0161155e565b985050602089013567ffffffffffffffff81111561171057600080fd5b61171c8b828c0161155e565b975050604089013567ffffffffffffffff81111561173957600080fd5b6117458b828c0161155e565b965050606089013567ffffffffffffffff81111561176257600080fd5b61176e8b828c0161155e565b955050608061177f8b828c016115b4565b94505060a089013567ffffffffffffffff81111561179c57600080fd5b6117a88b828c0161155e565b93505060c06117b98b828c016115c8565b92505060e089013567ffffffffffffffff8111156117d657600080fd5b6117e28b828c0161155e565b9150509295985092959890939650565b60006020828403121561180457600080fd5b6000611812848285016115b4565b91505092915050565b600061182682611fbb565b8084526020840193508360208202850161183f85611f94565b60005b8481101561187857838303885261185a838351611975565b925061186582611ff2565b9150602088019750600181019050611842565b508196508694505050505092915050565b600061189482611fc6565b8084526020840193506118a683611fa1565b60005b828110156118d8576118bc868351611c43565b6118c582611fff565b91506020860195506001810190506118a9565b50849250505092915050565b60006118ef82611fd1565b80845260208401935061190183611fae565b60005b8281101561193357611917868351611c52565b6119208261200c565b9150602086019550600181019050611904565b50849250505092915050565b600061194a82611fe7565b80845261195e816020860160208601612075565b611967816120a8565b602085010191505092915050565b600061198082611fdc565b808452611994816020860160208601612075565b61199d816120a8565b602085010191505092915050565b6000602b82527f4f2043504620696e666f726d61646f206ec3a36f20c3a920756d20636c69656e60208301527f74652076c3a16c69646f2e0000000000000000000000000000000000000000006040830152606082019050919050565b6000601b82527f4f2063616d706f2043504620c3a9206f627269676174c3b372696f00000000006020830152604082019050919050565b6000601282527f524720c3a9206f627269676174c3b372696f00000000000000000000000000006020830152604082019050919050565b6000601482527f4e6f6d6520c3a9206f627269676174c3b372696f0000000000000000000000006020830152604082019050919050565b6000602582527f4f2043504620696e666f726d61646f206ac3a120657374c3a12063616461737460208301527f7261646f2e0000000000000000000000000000000000000000000000000000006040830152606082019050919050565b6000601482527f435046206ec3a36f206361646173747261646f2e0000000000000000000000006020830152604082019050919050565b6000601a82527f4f2063616d706f20524720c3a9206f627269676174c3b372696f0000000000006020830152604082019050919050565b6000601f82527f4f2063616d706f206167656e63696120c3a9206f627269676174c3b372696f006020830152604082019050919050565b6000601c82527f4f2063616d706f206e6f6d6520c3a9206f627269676174c3b372696f000000006020830152604082019050919050565b6000602882527f4461646f7320646f20636c69656e746520617475616c697a61646f7320636f6d60208301527f207375636573736f0000000000000000000000000000000000000000000000006040830152606082019050919050565b611c4c81612019565b82525050565b611c5b81612023565b82525050565b6000610100820190508181036000830152611c7c818b61181b565b90508181036020830152611c90818a61181b565b90508181036040830152611ca4818961181b565b90508181036060830152611cb8818861181b565b90508181036080830152611ccc8187611889565b905081810360a0830152611ce0818661181b565b905081810360c0830152611cf481856118e4565b905081810360e0830152611d08818461181b565b90509998505050505050505050565b60006020820190508181036000830152611d318184611975565b905092915050565b600060e0820190508181036000830152611d53818a61193f565b90508181036020830152611d67818961193f565b90508181036040830152611d7b818861193f565b9050611d8a6060830187611c43565b8181036080830152611d9c818661193f565b9050611dab60a0830185611c52565b81810360c0830152611dbd818461193f565b905098975050505050505050565b60006040820190508181036000830152611de5818461193f565b90508181036020830152611df881611be6565b905092915050565b60006020820190508181036000830152611e19816119ab565b9050919050565b60006020820190508181036000830152611e3981611a08565b9050919050565b60006020820190508181036000830152611e5981611a3f565b9050919050565b60006020820190508181036000830152611e7981611a76565b9050919050565b60006020820190508181036000830152611e9981611aad565b9050919050565b60006020820190508181036000830152611eb981611b0a565b9050919050565b60006020820190508181036000830152611ed981611b41565b9050919050565b60006020820190508181036000830152611ef981611b78565b9050919050565b60006020820190508181036000830152611f1981611baf565b9050919050565b6000602082019050611f356000830184611c43565b92915050565b6000604051905081810181811067ffffffffffffffff82111715611f5e57600080fd5b8060405250919050565b600067ffffffffffffffff821115611f7f57600080fd5b601f19601f8301169050602081019050919050565b6000602082019050919050565b6000602082019050919050565b6000602082019050919050565b600081519050919050565b600081519050919050565b600081519050919050565b600081519050919050565b600081519050919050565b6000602082019050919050565b6000602082019050919050565b6000602082019050919050565b6000819050919050565b600063ffffffff82169050919050565b60008115159050919050565b60008160030b9050919050565b6000819050919050565b600063ffffffff82169050919050565b82818337600083830152505050565b60005b83811015612093578082015181840152602081019050612078565b838111156120a2576000848401525b50505050565b6000601f19601f830116905091905056fea265627a7a72305820caec84acbda6e27508e2961c32b0d1c3e75d243428fe6e6c7359d4fe74d635cc6c6578706572696d656e74616cf50037",
  "source": "pragma solidity >=0.4.21 <0.6.0;\npragma experimental ABIEncoderV2;\n\ncontract CrmContract {\n\t\n\t// evento para notificar que os dados do cliente foram atualizados\n    event clienteAtualizado(string _cpfCliente, string _msg);\n\n\tstruct Cliente {\n\t\tstring \tcpf;\n\t\tstring\trg;\n\t\tstring \tnome;\n\t\tstring \ttelefone;\n\t\tuint \tidade;\n\t\tstring \tendereco;\n\t\tuint32 \trenda;\n\t\tstring\tescolaridade;\n\t}\n\t\n\tstruct Conta {\n\t\tuint \tnumero;\n\t\tstring\tagencia;\n\t\tstring \tcpfTitular;\n\t\tbool \tbloqueio;\n\t\tint32 \tsaldo;\n\t}\n\n\tmapping (string => Cliente) clientes;\n\tstring[] public clienteCpfs;\n\n\tmapping (uint => Conta) contas;\n\tuint[] public contaNumeros;\n\n\tfunction existeCpf(string memory _cpf) private returns (bool) {\n\t\tstring memory cpfRetornado = clientes[_cpf].cpf;\n\t\tif (bytes(cpfRetornado).length >= 1) {\n\t\t\treturn true;\n\t\t} else {\n\t\t\treturn false;\n\t\t}\n\t}\n\n\t// funo para cadastrar um cliente\n    function adicionarCliente(string memory cpf, string memory rg, string memory nome, string memory telefone, uint idade, string memory endereco, uint32 renda, string memory escolaridade) public {\n        \n        require(bytes(cpf).length >= 1, \"O campo CPF  obrigatrio\");\n        require(bytes(rg).length >= 1, \"O campo RG  obrigatrio\");\n        require(bytes(nome).length >= 1, \"O campo nome  obrigatrio\");\n        require(!existeCpf(cpf), \"O CPF informado j est cadastrado.\");\n\n        clientes[cpf] = Cliente(cpf, rg, nome, telefone, idade, endereco, renda, escolaridade);\n        clienteCpfs.push(cpf);\n    }\n\n    // funo para cadastrar uma conta\n    function adicionarConta(string memory agencia, string memory cpfTitular, bool bloqueio, int32 saldo) public {\n        \n        require(bytes(cpfTitular).length >= 1, \"O campo CPF  obrigatrio\");\n        require(bytes(agencia).length >= 1, \"O campo agencia  obrigatrio\");\n        require(existeCpf(cpfTitular) == false, \"O CPF informado no  um cliente vlido.\");\n\n        uint numeroConta = contaNumeros.length + 1;\n        contas[numeroConta] = Conta(numeroConta, agencia, cpfTitular, bloqueio, saldo);\n        contaNumeros.push(numeroConta);\n    }\n\n    // funo que retorna todos os clientes cadastrados\n    function listarClientes() public view returns(string[] memory, string[] memory, string[] memory, string[] memory, uint[] memory, string[] memory, uint32[] memory, string[] memory) {\n\n    \tstring[] memory cpfs = clienteCpfs;\n\n        string[] memory rgs = new string[](cpfs.length);\n        string[] memory nomes = new string[](cpfs.length);\n        string[] memory telefones = new string[](cpfs.length);\n        uint[] memory idades = new uint[](cpfs.length);\n        string[] memory enderecos = new string[](cpfs.length);\n        uint32[] memory rendas = new uint32[](cpfs.length);\n        string[] memory escolaridades = new string[](cpfs.length);\n\n        for (uint i = 0; i < cpfs.length; i++) {\n            (rgs[i], nomes[i], telefones[i], idades[i], enderecos[i], rendas[i], escolaridades[i]) = informacoesCliente(cpfs[i]);\n        }\n\n        return (cpfs, rgs, nomes, telefones, idades, enderecos, rendas, escolaridades);\n    }\n\n    // funo para resgatar info de um produto\n    function informacoesCliente(string memory _cpf) public view\n        returns(\n            string memory,\n            string memory,\n            string memory,\n            uint,\n            string memory,\n            uint32,\n            string memory\n        ) {\n\n            Cliente memory cliente = clientes[_cpf];\n            require(bytes(cliente.cpf).length >= 1, \"CPF no cadastrado.\");\n            \n            return (\n                cliente.rg,\n                cliente.nome,\n                cliente.telefone,\n                cliente.idade,\n                cliente.endereco,\n                cliente.renda,\n                cliente.escolaridade\n            );\n    }\n\n\t// funo para atualizar os dados de um cliente\n    function atualizarDadosCliente(string memory _cpfCliente, string memory _newRg, string memory _newNome, string memory _newTelefone, uint _newIdade, string memory _newEndereco, uint32 _newRenda, string memory _newEscolaridade) public {\n        require(bytes(_newRg).length >= 1, \"RG  obrigatrio\");\n        require(bytes(_newNome).length >= 1, \"Nome  obrigatrio\");\n\n        Cliente storage cliente = clientes[_cpfCliente];\n\n        cliente.cpf = _cpfCliente;\n        cliente.rg = _newRg;\n        cliente.nome = _newNome;\n        cliente.telefone = _newTelefone;\n        cliente.idade = _newIdade;\n        cliente.endereco = _newEndereco;\n        cliente.renda = _newRenda;\n        cliente.escolaridade = _newEscolaridade;\n\n        emit clienteAtualizado(_cpfCliente, \"Dados do cliente atualizados com sucesso\");\n    }\n}",
  "sourcePath": "/home/bitcoin/Documentos/git/trabalho-dapp/dapp/contracts/CrmContract.sol",
  "compiler": {
    "name": "solc",
    "version": "0.5.0+commit.1d4f565a.Emscripten.clang"
  },
  "schemaVersion": "3.1.0",
  "updatedAt": "2020-06-09T01:45:15.710Z",
  "networkType": "ethereum",
  "devdoc": {
    "methods": {}
  },
  "userdoc": {
    "methods": {}
  }
}