{
  "contractName": "CrmContract",
  "abi": [
    {
      "constant": true,
      "inputs": [
        {
          "name": "",
          "type": "uint256"
        }
      ],
      "name": "clienteCpfs",
      "outputs": [
        {
          "name": "",
          "type": "string"
        }
      ],
      "payable": false,
      "stateMutability": "view",
      "type": "function"
    },
    {
      "constant": true,
      "inputs": [
        {
          "name": "",
          "type": "uint256"
        }
      ],
      "name": "contaNumeros",
      "outputs": [
        {
          "name": "",
          "type": "uint256"
        }
      ],
      "payable": false,
      "stateMutability": "view",
      "type": "function"
    },
    {
      "constant": false,
      "inputs": [
        {
          "name": "cpf",
          "type": "string"
        },
        {
          "name": "rg",
          "type": "string"
        },
        {
          "name": "nome",
          "type": "string"
        },
        {
          "name": "telefone",
          "type": "string"
        },
        {
          "name": "idade",
          "type": "uint256"
        },
        {
          "name": "endereco",
          "type": "string"
        },
        {
          "name": "renda",
          "type": "uint32"
        },
        {
          "name": "escolaridade",
          "type": "string"
        }
      ],
      "name": "adicionarCliente",
      "outputs": [],
      "payable": false,
      "stateMutability": "nonpayable",
      "type": "function"
    },
    {
      "constant": false,
      "inputs": [
        {
          "name": "agencia",
          "type": "string"
        },
        {
          "name": "cpfTitular",
          "type": "string"
        },
        {
          "name": "bloqueio",
          "type": "bool"
        },
        {
          "name": "saldo",
          "type": "int32"
        }
      ],
      "name": "adicionarConta",
      "outputs": [],
      "payable": false,
      "stateMutability": "nonpayable",
      "type": "function"
    }
  ],
  "bytecode": "0x608060405234801561001057600080fd5b50610f88806100206000396000f3fe608060405260043610610062576000357c0100000000000000000000000000000000000000000000000000000000900463ffffffff1680631636a5be146100675780631cbc75771461043d5780636bbfa7ad146104f1578063ad17db9f14610669575b600080fd5b34801561007357600080fd5b5061043b600480360361010081101561008b57600080fd5b81019080803590602001906401000000008111156100a857600080fd5b8201836020820111156100ba57600080fd5b803590602001918460018302840111640100000000831117156100dc57600080fd5b91908080601f016020809104026020016040519081016040528093929190818152602001838380828437600081840152601f19601f8201169050808301925050505050505091929192908035906020019064010000000081111561013f57600080fd5b82018360208201111561015157600080fd5b8035906020019184600183028401116401000000008311171561017357600080fd5b91908080601f016020809104026020016040519081016040528093929190818152602001838380828437600081840152601f19601f820116905080830192505050505050509192919290803590602001906401000000008111156101d657600080fd5b8201836020820111156101e857600080fd5b8035906020019184600183028401116401000000008311171561020a57600080fd5b91908080601f016020809104026020016040519081016040528093929190818152602001838380828437600081840152601f19601f8201169050808301925050505050505091929192908035906020019064010000000081111561026d57600080fd5b82018360208201111561027f57600080fd5b803590602001918460018302840111640100000000831117156102a157600080fd5b91908080601f016020809104026020016040519081016040528093929190818152602001838380828437600081840152601f19601f820116905080830192505050505050509192919290803590602001909291908035906020019064010000000081111561030e57600080fd5b82018360208201111561032057600080fd5b8035906020019184600183028401116401000000008311171561034257600080fd5b91908080601f016020809104026020016040519081016040528093929190818152602001838380828437600081840152601f19601f820116905080830192505050505050509192919290803563ffffffff169060200190929190803590602001906401000000008111156103b557600080fd5b8201836020820111156103c757600080fd5b803590602001918460018302840111640100000000831117156103e957600080fd5b91908080601f016020809104026020016040519081016040528093929190818152602001838380828437600081840152601f19601f8201169050808301925050505050505091929192905050506106b8565b005b34801561044957600080fd5b506104766004803603602081101561046057600080fd5b8101908080359060200190929190505050610aa0565b6040518080602001828103825283818151815260200191508051906020019080838360005b838110156104b657808201518184015260208101905061049b565b50505050905090810190601f1680156104e35780820380516001836020036101000a031916815260200191505b509250505060405180910390f35b3480156104fd57600080fd5b506106676004803603608081101561051457600080fd5b810190808035906020019064010000000081111561053157600080fd5b82018360208201111561054357600080fd5b8035906020019184600183028401116401000000008311171561056557600080fd5b91908080601f016020809104026020016040519081016040528093929190818152602001838380828437600081840152601f19601f820116905080830192505050505050509192919290803590602001906401000000008111156105c857600080fd5b8201836020820111156105da57600080fd5b803590602001918460018302840111640100000000831117156105fc57600080fd5b91908080601f016020809104026020016040519081016040528093929190818152602001838380828437600081840152601f19601f820116905080830192505050505050509192919290803515159060200190929190803560030b9060200190929190505050610b5b565b005b34801561067557600080fd5b506106a26004803603602081101561068c57600080fd5b8101908080359060200190929190505050610e0a565b6040518082815260200191505060405180910390f35b6001885110151515610732576040517f08c379a000000000000000000000000000000000000000000000000000000000815260040180806020018281038252601b8152602001807f4f2063616d706f2043504620c3a9206f627269676174c3b372696f000000000081525060200191505060405180910390fd5b60018751101515156107ac576040517f08c379a000000000000000000000000000000000000000000000000000000000815260040180806020018281038252601a8152602001807f4f2063616d706f20524720c3a9206f627269676174c3b372696f00000000000081525060200191505060405180910390fd5b6001865110151515610826576040517f08c379a000000000000000000000000000000000000000000000000000000000815260040180806020018281038252601c8152602001807f4f2063616d706f206e6f6d6520c3a9206f627269676174c3b372696f0000000081525060200191505060405180910390fd5b61082f88610e2d565b15156108c9576040517f08c379a00000000000000000000000000000000000000000000000000000000081526004018080602001828103825260258152602001807f4f2043504620696e666f726d61646f206ac3a120657374c3a12063616461737481526020017f7261646f2e00000000000000000000000000000000000000000000000000000081525060400191505060405180910390fd5b610100604051908101604052808981526020018881526020018781526020018681526020018581526020018481526020018363ffffffff168152602001828152506000896040518082805190602001908083835b602083101515610942578051825260208201915060208101905060208303925061091d565b6001836020036101000a03801982511681845116808217855250505050505090500191505090815260200160405180910390206000820151816000019080519060200190610991929190610e37565b5060208201518160010190805190602001906109ae929190610e37565b5060408201518160020190805190602001906109cb929190610e37565b5060608201518160030190805190602001906109e8929190610e37565b506080820151816004015560a0820151816005019080519060200190610a0f929190610e37565b5060c08201518160060160006101000a81548163ffffffff021916908363ffffffff16021790555060e0820151816007019080519060200190610a53929190610e37565b509050506001889080600181540180825580915050906001820390600052602060002001600090919290919091509080519060200190610a94929190610eb7565b50505050505050505050565b600181815481101515610aaf57fe5b906000526020600020016000915090508054600181600116156101000203166002900480601f016020809104026020016040519081016040528092919081815260200182805460018160011615610100020316600290048015610b535780601f10610b2857610100808354040283529160200191610b53565b820191906000526020600020905b815481529060010190602001808311610b3657829003601f168201915b505050505081565b6001835110151515610bd5576040517f08c379a000000000000000000000000000000000000000000000000000000000815260040180806020018281038252601b8152602001807f4f2063616d706f2043504620c3a9206f627269676174c3b372696f000000000081525060200191505060405180910390fd5b6001845110151515610c4f576040517f08c379a000000000000000000000000000000000000000000000000000000000815260040180806020018281038252601f8152602001807f4f2063616d706f206167656e63696120c3a9206f627269676174c3b372696f0081525060200191505060405180910390fd5b60001515610c5c84610e2d565b1515141515610cf9576040517f08c379a000000000000000000000000000000000000000000000000000000000815260040180806020018281038252602b8152602001807f4f2043504620696e666f726d61646f206ec3a36f20c3a920756d20636c69656e81526020017f74652076c3a16c69646f2e00000000000000000000000000000000000000000081525060400191505060405180910390fd5b6000600160038054905001905060a06040519081016040528082815260200186815260200185815260200184151581526020018360030b81525060026000838152602001908152602001600020600082015181600001556020820151816001019080519060200190610d6c929190610e37565b506040820151816002019080519060200190610d89929190610e37565b5060608201518160030160006101000a81548160ff02191690831515021790555060808201518160030160016101000a81548163ffffffff021916908360030b63ffffffff16021790555090505060038190806001815401808255809150509060018203906000526020600020016000909192909190915055505050505050565b600381815481101515610e1957fe5b906000526020600020016000915090505481565b6000809050919050565b828054600181600116156101000203166002900490600052602060002090601f016020900481019282601f10610e7857805160ff1916838001178555610ea6565b82800160010185558215610ea6579182015b82811115610ea5578251825591602001919060010190610e8a565b5b509050610eb39190610f37565b5090565b828054600181600116156101000203166002900490600052602060002090601f016020900481019282601f10610ef857805160ff1916838001178555610f26565b82800160010185558215610f26579182015b82811115610f25578251825591602001919060010190610f0a565b5b509050610f339190610f37565b5090565b610f5991905b80821115610f55576000816000905550600101610f3d565b5090565b9056fea165627a7a72305820e8ad48a1b8774bf547fbf87665d11d29ccab290610d269234d4e5403f37cd1320029",
  "source": "pragma solidity >=0.4.21 <0.6.0;\n\ncontract CrmContract {\n\t\n\tstruct Cliente {\n\t\tstring \tcpf;\n\t\tstring\trg;\n\t\tstring \tnome;\n\t\tstring \ttelefone;\n\t\tuint \tidade;\n\t\tstring \tendereco;\n\t\tuint32 \trenda;\n\t\tstring\tescolaridade;\n\t}\n\t\n\tstruct Conta {\n\t\tuint \tnumero;\n\t\tstring\tagencia;\n\t\tstring \tcpfTitular;\n\t\tbool \tbloqueio;\n\t\tint32 \tsaldo;\n\t}\n\n\tmapping (string => Cliente) clientes;\n\tstring[] public clienteCpfs;\n\n\tmapping (uint => Conta) contas;\n\tuint[] public contaNumeros;\n\n\tfunction existeCpf(string memory _cpf) private returns (bool) {\n\t\treturn false;\n\t}\n\n\t// função para cadastrar um cliente\n    function adicionarCliente(string memory cpf, string memory rg, string memory nome, string memory telefone, uint idade, string memory endereco, uint32 renda, string memory escolaridade) public {\n        \n        require(bytes(cpf).length >= 1, \"O campo CPF é obrigatório\");\n        require(bytes(rg).length >= 1, \"O campo RG é obrigatório\");\n        require(bytes(nome).length >= 1, \"O campo nome é obrigatório\");\n        require(existeCpf(cpf), \"O CPF informado já está cadastrado.\");\n\n        clientes[cpf] = Cliente(cpf, rg, nome, telefone, idade, endereco, renda, escolaridade);\n        clienteCpfs.push(cpf);\n    }\n\n    // função para cadastrar uma conta\n    function adicionarConta(string memory agencia, string memory cpfTitular, bool bloqueio, int32 saldo) public {\n        \n        require(bytes(cpfTitular).length >= 1, \"O campo CPF é obrigatório\");\n        require(bytes(agencia).length >= 1, \"O campo agencia é obrigatório\");\n        require(existeCpf(cpfTitular) == false, \"O CPF informado não é um cliente válido.\");\n\n        uint numeroConta = contaNumeros.length + 1;\n        contas[numeroConta] = Conta(numeroConta, agencia, cpfTitular, bloqueio, saldo);\n        contaNumeros.push(numeroConta);\n    }\n}",
  "sourcePath": "/home/bitcoin/Documentos/CasesBlockchain/trabalho-dapp/iesb-blockchain/dapp/contracts/CrmContract.sol",
  "compiler": {
    "name": "solc",
    "version": "0.5.0+commit.1d4f565a.Emscripten.clang"
  },
  "schemaVersion": "3.1.0",
  "updatedAt": "2020-06-05T01:59:21.196Z",
  "networkType": "ethereum",
  "devdoc": {
    "methods": {}
  },
  "userdoc": {
    "methods": {}
  }
}